{
  "_format": "hh-sol-artifact-1",
  "contractName": "CustomNFT",
  "sourceName": "contracts/CustomNFT.sol",
  "abi": [
    {
      "inputs": [
        {
          "internalType": "string",
          "name": "_name",
          "type": "string"
        },
        {
          "internalType": "string",
          "name": "_symbol",
          "type": "string"
        },
        {
          "internalType": "uint256",
          "name": "_totalSupply",
          "type": "uint256"
        }
      ],
      "stateMutability": "nonpayable",
      "type": "constructor"
    },
    {
      "inputs": [
        {
          "internalType": "address",
          "name": "sender",
          "type": "address"
        },
        {
          "internalType": "uint256",
          "name": "tokenId",
          "type": "uint256"
        },
        {
          "internalType": "address",
          "name": "owner",
          "type": "address"
        }
      ],
      "name": "ERC721IncorrectOwner",
      "type": "error"
    },
    {
      "inputs": [
        {
          "internalType": "address",
          "name": "operator",
          "type": "address"
        },
        {
          "internalType": "uint256",
          "name": "tokenId",
          "type": "uint256"
        }
      ],
      "name": "ERC721InsufficientApproval",
      "type": "error"
    },
    {
      "inputs": [
        {
          "internalType": "address",
          "name": "approver",
          "type": "address"
        }
      ],
      "name": "ERC721InvalidApprover",
      "type": "error"
    },
    {
      "inputs": [
        {
          "internalType": "address",
          "name": "operator",
          "type": "address"
        }
      ],
      "name": "ERC721InvalidOperator",
      "type": "error"
    },
    {
      "inputs": [
        {
          "internalType": "address",
          "name": "owner",
          "type": "address"
        }
      ],
      "name": "ERC721InvalidOwner",
      "type": "error"
    },
    {
      "inputs": [
        {
          "internalType": "address",
          "name": "receiver",
          "type": "address"
        }
      ],
      "name": "ERC721InvalidReceiver",
      "type": "error"
    },
    {
      "inputs": [
        {
          "internalType": "address",
          "name": "sender",
          "type": "address"
        }
      ],
      "name": "ERC721InvalidSender",
      "type": "error"
    },
    {
      "inputs": [
        {
          "internalType": "uint256",
          "name": "tokenId",
          "type": "uint256"
        }
      ],
      "name": "ERC721NonexistentToken",
      "type": "error"
    },
    {
      "anonymous": false,
      "inputs": [
        {
          "indexed": true,
          "internalType": "address",
          "name": "owner",
          "type": "address"
        },
        {
          "indexed": true,
          "internalType": "address",
          "name": "approved",
          "type": "address"
        },
        {
          "indexed": true,
          "internalType": "uint256",
          "name": "tokenId",
          "type": "uint256"
        }
      ],
      "name": "Approval",
      "type": "event"
    },
    {
      "anonymous": false,
      "inputs": [
        {
          "indexed": true,
          "internalType": "address",
          "name": "owner",
          "type": "address"
        },
        {
          "indexed": true,
          "internalType": "address",
          "name": "operator",
          "type": "address"
        },
        {
          "indexed": false,
          "internalType": "bool",
          "name": "approved",
          "type": "bool"
        }
      ],
      "name": "ApprovalForAll",
      "type": "event"
    },
    {
      "anonymous": false,
      "inputs": [
        {
          "indexed": false,
          "internalType": "uint256",
          "name": "_fromTokenId",
          "type": "uint256"
        },
        {
          "indexed": false,
          "internalType": "uint256",
          "name": "_toTokenId",
          "type": "uint256"
        }
      ],
      "name": "BatchMetadataUpdate",
      "type": "event"
    },
    {
      "anonymous": false,
      "inputs": [
        {
          "indexed": false,
          "internalType": "uint256",
          "name": "_tokenId",
          "type": "uint256"
        }
      ],
      "name": "MetadataUpdate",
      "type": "event"
    },
    {
      "anonymous": false,
      "inputs": [
        {
          "indexed": true,
          "internalType": "address",
          "name": "from",
          "type": "address"
        },
        {
          "indexed": true,
          "internalType": "address",
          "name": "to",
          "type": "address"
        },
        {
          "indexed": true,
          "internalType": "uint256",
          "name": "tokenId",
          "type": "uint256"
        }
      ],
      "name": "Transfer",
      "type": "event"
    },
    {
      "inputs": [
        {
          "internalType": "address",
          "name": "to",
          "type": "address"
        },
        {
          "internalType": "uint256",
          "name": "tokenId",
          "type": "uint256"
        }
      ],
      "name": "approve",
      "outputs": [],
      "stateMutability": "nonpayable",
      "type": "function"
    },
    {
      "inputs": [
        {
          "internalType": "address",
          "name": "owner",
          "type": "address"
        }
      ],
      "name": "balanceOf",
      "outputs": [
        {
          "internalType": "uint256",
          "name": "",
          "type": "uint256"
        }
      ],
      "stateMutability": "view",
      "type": "function"
    },
    {
      "inputs": [
        {
          "internalType": "uint256",
          "name": "tokenId",
          "type": "uint256"
        }
      ],
      "name": "getApproved",
      "outputs": [
        {
          "internalType": "address",
          "name": "",
          "type": "address"
        }
      ],
      "stateMutability": "view",
      "type": "function"
    },
    {
      "inputs": [
        {
          "internalType": "address",
          "name": "owner",
          "type": "address"
        },
        {
          "internalType": "address",
          "name": "operator",
          "type": "address"
        }
      ],
      "name": "isApprovedForAll",
      "outputs": [
        {
          "internalType": "bool",
          "name": "",
          "type": "bool"
        }
      ],
      "stateMutability": "view",
      "type": "function"
    },
    {
      "inputs": [
        {
          "internalType": "string",
          "name": "_tokenURI",
          "type": "string"
        }
      ],
      "name": "mintNFT",
      "outputs": [
        {
          "internalType": "uint256",
          "name": "",
          "type": "uint256"
        }
      ],
      "stateMutability": "nonpayable",
      "type": "function"
    },
    {
      "inputs": [],
      "name": "name",
      "outputs": [
        {
          "internalType": "string",
          "name": "",
          "type": "string"
        }
      ],
      "stateMutability": "view",
      "type": "function"
    },
    {
      "inputs": [
        {
          "internalType": "uint256",
          "name": "tokenId",
          "type": "uint256"
        }
      ],
      "name": "ownerOf",
      "outputs": [
        {
          "internalType": "address",
          "name": "",
          "type": "address"
        }
      ],
      "stateMutability": "view",
      "type": "function"
    },
    {
      "inputs": [
        {
          "internalType": "address",
          "name": "from",
          "type": "address"
        },
        {
          "internalType": "address",
          "name": "to",
          "type": "address"
        },
        {
          "internalType": "uint256",
          "name": "tokenId",
          "type": "uint256"
        }
      ],
      "name": "safeTransferFrom",
      "outputs": [],
      "stateMutability": "nonpayable",
      "type": "function"
    },
    {
      "inputs": [
        {
          "internalType": "address",
          "name": "from",
          "type": "address"
        },
        {
          "internalType": "address",
          "name": "to",
          "type": "address"
        },
        {
          "internalType": "uint256",
          "name": "tokenId",
          "type": "uint256"
        },
        {
          "internalType": "bytes",
          "name": "data",
          "type": "bytes"
        }
      ],
      "name": "safeTransferFrom",
      "outputs": [],
      "stateMutability": "nonpayable",
      "type": "function"
    },
    {
      "inputs": [
        {
          "internalType": "address",
          "name": "operator",
          "type": "address"
        },
        {
          "internalType": "bool",
          "name": "approved",
          "type": "bool"
        }
      ],
      "name": "setApprovalForAll",
      "outputs": [],
      "stateMutability": "nonpayable",
      "type": "function"
    },
    {
      "inputs": [
        {
          "internalType": "bytes4",
          "name": "interfaceId",
          "type": "bytes4"
        }
      ],
      "name": "supportsInterface",
      "outputs": [
        {
          "internalType": "bool",
          "name": "",
          "type": "bool"
        }
      ],
      "stateMutability": "view",
      "type": "function"
    },
    {
      "inputs": [],
      "name": "symbol",
      "outputs": [
        {
          "internalType": "string",
          "name": "",
          "type": "string"
        }
      ],
      "stateMutability": "view",
      "type": "function"
    },
    {
      "inputs": [
        {
          "internalType": "uint256",
          "name": "tokenId",
          "type": "uint256"
        }
      ],
      "name": "tokenURI",
      "outputs": [
        {
          "internalType": "string",
          "name": "",
          "type": "string"
        }
      ],
      "stateMutability": "view",
      "type": "function"
    },
    {
      "inputs": [],
      "name": "totalSupply",
      "outputs": [
        {
          "internalType": "uint256",
          "name": "",
          "type": "uint256"
        }
      ],
      "stateMutability": "view",
      "type": "function"
    },
    {
      "inputs": [
        {
          "internalType": "address",
          "name": "from",
          "type": "address"
        },
        {
          "internalType": "address",
          "name": "to",
          "type": "address"
        },
        {
          "internalType": "uint256",
          "name": "tokenId",
          "type": "uint256"
        }
      ],
      "name": "transferFrom",
      "outputs": [],
      "stateMutability": "nonpayable",
      "type": "function"
    }
  ],
  "bytecode": "0x60806040523480156200001157600080fd5b5060405162002a2f38038062002a2f83398181016040528101906200003791906200023d565b828281600090816200004a919062000518565b5080600190816200005c919062000518565b50505080600881905550505050620005ff565b6000604051905090565b600080fd5b600080fd5b600080fd5b600080fd5b6000601f19601f8301169050919050565b7f4e487b7100000000000000000000000000000000000000000000000000000000600052604160045260246000fd5b620000d8826200008d565b810181811067ffffffffffffffff82111715620000fa57620000f96200009e565b5b80604052505050565b60006200010f6200006f565b90506200011d8282620000cd565b919050565b600067ffffffffffffffff82111562000140576200013f6200009e565b5b6200014b826200008d565b9050602081019050919050565b60005b83811015620001785780820151818401526020810190506200015b565b60008484015250505050565b60006200019b620001958462000122565b62000103565b905082815260208101848484011115620001ba57620001b962000088565b5b620001c784828562000158565b509392505050565b600082601f830112620001e757620001e662000083565b5b8151620001f984826020860162000184565b91505092915050565b6000819050919050565b620002178162000202565b81146200022357600080fd5b50565b60008151905062000237816200020c565b92915050565b60008060006060848603121562000259576200025862000079565b5b600084015167ffffffffffffffff8111156200027a57620002796200007e565b5b6200028886828701620001cf565b935050602084015167ffffffffffffffff811115620002ac57620002ab6200007e565b5b620002ba86828701620001cf565b9250506040620002cd8682870162000226565b9150509250925092565b600081519050919050565b7f4e487b7100000000000000000000000000000000000000000000000000000000600052602260045260246000fd5b600060028204905060018216806200032a57607f821691505b60208210810362000340576200033f620002e2565b5b50919050565b60008190508160005260206000209050919050565b60006020601f8301049050919050565b600082821b905092915050565b600060088302620003aa7fffffffffffffffffffffffffffffffffffffffffffffffffffffffffffffffff826200036b565b620003b686836200036b565b95508019841693508086168417925050509392505050565b6000819050919050565b6000620003f9620003f3620003ed8462000202565b620003ce565b62000202565b9050919050565b6000819050919050565b6200041583620003d8565b6200042d620004248262000400565b84845462000378565b825550505050565b600090565b6200044462000435565b620004518184846200040a565b505050565b5b8181101562000479576200046d6000826200043a565b60018101905062000457565b5050565b601f821115620004c857620004928162000346565b6200049d846200035b565b81016020851015620004ad578190505b620004c5620004bc856200035b565b83018262000456565b50505b505050565b600082821c905092915050565b6000620004ed60001984600802620004cd565b1980831691505092915050565b6000620005088383620004da565b9150826002028217905092915050565b6200052382620002d7565b67ffffffffffffffff8111156200053f576200053e6200009e565b5b6200054b825462000311565b620005588282856200047d565b600060209050601f8311600181146200059057600084156200057b578287015190505b620005878582620004fa565b865550620005f7565b601f198416620005a08662000346565b60005b82811015620005ca57848901518255600182019150602085019450602081019050620005a3565b86831015620005ea5784890151620005e6601f891682620004da565b8355505b6001600288020188555050505b505050505050565b612420806200060f6000396000f3fe608060405234801561001057600080fd5b50600436106100f55760003560e01c80636352211e11610097578063b88d4fde11610066578063b88d4fde14610284578063c87b56dd146102a0578063e985e9c5146102d0578063fb37e88314610300576100f5565b80636352211e146101ea57806370a082311461021a57806395d89b411461024a578063a22cb46514610268576100f5565b8063095ea7b3116100d3578063095ea7b31461017857806318160ddd1461019457806323b872dd146101b257806342842e0e146101ce576100f5565b806301ffc9a7146100fa57806306fdde031461012a578063081812fc14610148575b600080fd5b610114600480360381019061010f919061188b565b610330565b60405161012191906118d3565b60405180910390f35b610132610391565b60405161013f919061197e565b60405180910390f35b610162600480360381019061015d91906119d6565b610423565b60405161016f9190611a44565b60405180910390f35b610192600480360381019061018d9190611a8b565b61043f565b005b61019c610455565b6040516101a99190611ada565b60405180910390f35b6101cc60048036038101906101c79190611af5565b61045b565b005b6101e860048036038101906101e39190611af5565b61055d565b005b61020460048036038101906101ff91906119d6565b61057d565b6040516102119190611a44565b60405180910390f35b610234600480360381019061022f9190611b48565b61058f565b6040516102419190611ada565b60405180910390f35b610252610649565b60405161025f919061197e565b60405180910390f35b610282600480360381019061027d9190611ba1565b6106db565b005b61029e60048036038101906102999190611d16565b6106f1565b005b6102ba60048036038101906102b591906119d6565b61070e565b6040516102c7919061197e565b60405180910390f35b6102ea60048036038101906102e59190611d99565b610821565b6040516102f791906118d3565b60405180910390f35b61031a60048036038101906103159190611e7a565b6108b5565b6040516103279190611ada565b60405180910390f35b6000634906490660e01b7bffffffffffffffffffffffffffffffffffffffffffffffffffffffff1916827bffffffffffffffffffffffffffffffffffffffffffffffffffffffff1916148061038a5750610389826108fd565b5b9050919050565b6060600080546103a090611ef2565b80601f01602080910402602001604051908101604052809291908181526020018280546103cc90611ef2565b80156104195780601f106103ee57610100808354040283529160200191610419565b820191906000526020600020905b8154815290600101906020018083116103fc57829003601f168201915b5050505050905090565b600061042e826109df565b5061043882610a67565b9050919050565b610451828261044c610aa4565b610aac565b5050565b60085481565b600073ffffffffffffffffffffffffffffffffffffffff168273ffffffffffffffffffffffffffffffffffffffff16036104cd5760006040517f64a0ae920000000000000000000000000000000000000000000000000000000081526004016104c49190611a44565b60405180910390fd5b60006104e183836104dc610aa4565b610abe565b90508373ffffffffffffffffffffffffffffffffffffffff168173ffffffffffffffffffffffffffffffffffffffff1614610557578382826040517f64283d7b00000000000000000000000000000000000000000000000000000000815260040161054e93929190611f23565b60405180910390fd5b50505050565b610578838383604051806020016040528060008152506106f1565b505050565b6000610588826109df565b9050919050565b60008073ffffffffffffffffffffffffffffffffffffffff168273ffffffffffffffffffffffffffffffffffffffff16036106025760006040517f89c62b640000000000000000000000000000000000000000000000000000000081526004016105f99190611a44565b60405180910390fd5b600360008373ffffffffffffffffffffffffffffffffffffffff1673ffffffffffffffffffffffffffffffffffffffff168152602001908152602001600020549050919050565b60606001805461065890611ef2565b80601f016020809104026020016040519081016040528092919081815260200182805461068490611ef2565b80156106d15780601f106106a6576101008083540402835291602001916106d1565b820191906000526020600020905b8154815290600101906020018083116106b457829003601f168201915b5050505050905090565b6106ed6106e6610aa4565b8383610cd8565b5050565b6106fc84848461045b565b61070884848484610e47565b50505050565b6060610719826109df565b50600060066000848152602001908152602001600020805461073a90611ef2565b80601f016020809104026020016040519081016040528092919081815260200182805461076690611ef2565b80156107b35780601f10610788576101008083540402835291602001916107b3565b820191906000526020600020905b81548152906001019060200180831161079657829003601f168201915b5050505050905060006107c4610ffe565b905060008151036107d957819250505061081c565b60008251111561080e5780826040516020016107f6929190611f96565b6040516020818303038152906040529250505061081c565b61081784611015565b925050505b919050565b6000600560008473ffffffffffffffffffffffffffffffffffffffff1673ffffffffffffffffffffffffffffffffffffffff16815260200190815260200160002060008373ffffffffffffffffffffffffffffffffffffffff1673ffffffffffffffffffffffffffffffffffffffff16815260200190815260200160002060009054906101000a900460ff16905092915050565b6000600760008154809291906108ca90611fe9565b91905055506000600754905060085481116108f4576108e9338261107e565b6108f3818461109c565b5b80915050919050565b60007f80ac58cd000000000000000000000000000000000000000000000000000000007bffffffffffffffffffffffffffffffffffffffffffffffffffffffff1916827bffffffffffffffffffffffffffffffffffffffffffffffffffffffff191614806109c857507f5b5e139f000000000000000000000000000000000000000000000000000000007bffffffffffffffffffffffffffffffffffffffffffffffffffffffff1916827bffffffffffffffffffffffffffffffffffffffffffffffffffffffff1916145b806109d857506109d7826110f8565b5b9050919050565b6000806109eb83611162565b9050600073ffffffffffffffffffffffffffffffffffffffff168173ffffffffffffffffffffffffffffffffffffffff1603610a5e57826040517f7e273289000000000000000000000000000000000000000000000000000000008152600401610a559190611ada565b60405180910390fd5b80915050919050565b60006004600083815260200190815260200160002060009054906101000a900473ffffffffffffffffffffffffffffffffffffffff169050919050565b600033905090565b610ab9838383600161119f565b505050565b600080610aca84611162565b9050600073ffffffffffffffffffffffffffffffffffffffff168373ffffffffffffffffffffffffffffffffffffffff1614610b0c57610b0b818486611364565b5b600073ffffffffffffffffffffffffffffffffffffffff168173ffffffffffffffffffffffffffffffffffffffff1614610b9d57610b4e60008560008061119f565b6001600360008373ffffffffffffffffffffffffffffffffffffffff1673ffffffffffffffffffffffffffffffffffffffff168152602001908152602001600020600082825403925050819055505b600073ffffffffffffffffffffffffffffffffffffffff168573ffffffffffffffffffffffffffffffffffffffff1614610c20576001600360008773ffffffffffffffffffffffffffffffffffffffff1673ffffffffffffffffffffffffffffffffffffffff168152602001908152602001600020600082825401925050819055505b846002600086815260200190815260200160002060006101000a81548173ffffffffffffffffffffffffffffffffffffffff021916908373ffffffffffffffffffffffffffffffffffffffff160217905550838573ffffffffffffffffffffffffffffffffffffffff168273ffffffffffffffffffffffffffffffffffffffff167fddf252ad1be2c89b69c2b068fc378daa952ba7f163c4a11628f55a4df523b3ef60405160405180910390a4809150509392505050565b600073ffffffffffffffffffffffffffffffffffffffff168273ffffffffffffffffffffffffffffffffffffffff1603610d4957816040517f5b08ba18000000000000000000000000000000000000000000000000000000008152600401610d409190611a44565b60405180910390fd5b80600560008573ffffffffffffffffffffffffffffffffffffffff1673ffffffffffffffffffffffffffffffffffffffff16815260200190815260200160002060008473ffffffffffffffffffffffffffffffffffffffff1673ffffffffffffffffffffffffffffffffffffffff16815260200190815260200160002060006101000a81548160ff0219169083151502179055508173ffffffffffffffffffffffffffffffffffffffff168373ffffffffffffffffffffffffffffffffffffffff167f17307eab39ab6107e8899845ad3d59bd9653f200f220920489ca2b5937696c3183604051610e3a91906118d3565b60405180910390a3505050565b60008373ffffffffffffffffffffffffffffffffffffffff163b1115610ff8578273ffffffffffffffffffffffffffffffffffffffff1663150b7a02610e8b610aa4565b8685856040518563ffffffff1660e01b8152600401610ead9493929190612086565b6020604051808303816000875af1925050508015610ee957506040513d601f19601f82011682018060405250810190610ee691906120e7565b60015b610f6d573d8060008114610f19576040519150601f19603f3d011682016040523d82523d6000602084013e610f1e565b606091505b506000815103610f6557836040517f64a0ae92000000000000000000000000000000000000000000000000000000008152600401610f5c9190611a44565b60405180910390fd5b805181602001fd5b63150b7a0260e01b7bffffffffffffffffffffffffffffffffffffffffffffffffffffffff1916817bffffffffffffffffffffffffffffffffffffffffffffffffffffffff191614610ff657836040517f64a0ae92000000000000000000000000000000000000000000000000000000008152600401610fed9190611a44565b60405180910390fd5b505b50505050565b606060405180602001604052806000815250905090565b6060611020826109df565b50600061102b610ffe565b9050600081511161104b5760405180602001604052806000815250611076565b8061105584611428565b604051602001611066929190611f96565b6040516020818303038152906040525b915050919050565b6110988282604051806020016040528060008152506114f6565b5050565b806006600084815260200190815260200160002090816110bc91906122c0565b507ff8e1a15aba9398e019f0b49df1a4fde98ee17ae345cb5f6b5e2c27f5033e8ce7826040516110ec9190611ada565b60405180910390a15050565b60007f01ffc9a7000000000000000000000000000000000000000000000000000000007bffffffffffffffffffffffffffffffffffffffffffffffffffffffff1916827bffffffffffffffffffffffffffffffffffffffffffffffffffffffff1916149050919050565b60006002600083815260200190815260200160002060009054906101000a900473ffffffffffffffffffffffffffffffffffffffff169050919050565b80806111d85750600073ffffffffffffffffffffffffffffffffffffffff168273ffffffffffffffffffffffffffffffffffffffff1614155b1561130c5760006111e8846109df565b9050600073ffffffffffffffffffffffffffffffffffffffff168373ffffffffffffffffffffffffffffffffffffffff161415801561125357508273ffffffffffffffffffffffffffffffffffffffff168173ffffffffffffffffffffffffffffffffffffffff1614155b801561126657506112648184610821565b155b156112a857826040517fa9fbf51f00000000000000000000000000000000000000000000000000000000815260040161129f9190611a44565b60405180910390fd5b811561130a57838573ffffffffffffffffffffffffffffffffffffffff168273ffffffffffffffffffffffffffffffffffffffff167f8c5be1e5ebec7d5bd14f71427d1e84f3dd0314c0f7b2291e5b200ac8c7c3b92560405160405180910390a45b505b836004600085815260200190815260200160002060006101000a81548173ffffffffffffffffffffffffffffffffffffffff021916908373ffffffffffffffffffffffffffffffffffffffff16021790555050505050565b61136f838383611512565b61142357600073ffffffffffffffffffffffffffffffffffffffff168373ffffffffffffffffffffffffffffffffffffffff16036113e457806040517f7e2732890000000000000000000000000000000000000000000000000000000081526004016113db9190611ada565b60405180910390fd5b81816040517f177e802f00000000000000000000000000000000000000000000000000000000815260040161141a929190612392565b60405180910390fd5b505050565b606060006001611437846115d3565b01905060008167ffffffffffffffff81111561145657611455611beb565b5b6040519080825280601f01601f1916602001820160405280156114885781602001600182028036833780820191505090505b509050600082602001820190505b6001156114eb578080600190039150507f3031323334353637383961626364656600000000000000000000000000000000600a86061a8153600a85816114df576114de6123bb565b5b04945060008503611496575b819350505050919050565b6115008383611726565b61150d6000848484610e47565b505050565b60008073ffffffffffffffffffffffffffffffffffffffff168373ffffffffffffffffffffffffffffffffffffffff16141580156115ca57508273ffffffffffffffffffffffffffffffffffffffff168473ffffffffffffffffffffffffffffffffffffffff16148061158b575061158a8484610821565b5b806115c957508273ffffffffffffffffffffffffffffffffffffffff166115b183610a67565b73ffffffffffffffffffffffffffffffffffffffff16145b5b90509392505050565b600080600090507a184f03e93ff9f4daa797ed6e38ed64bf6a1f0100000000000000008310611631577a184f03e93ff9f4daa797ed6e38ed64bf6a1f0100000000000000008381611627576116266123bb565b5b0492506040810190505b6d04ee2d6d415b85acef8100000000831061166e576d04ee2d6d415b85acef81000000008381611664576116636123bb565b5b0492506020810190505b662386f26fc10000831061169d57662386f26fc100008381611693576116926123bb565b5b0492506010810190505b6305f5e10083106116c6576305f5e10083816116bc576116bb6123bb565b5b0492506008810190505b61271083106116eb5761271083816116e1576116e06123bb565b5b0492506004810190505b6064831061170e5760648381611704576117036123bb565b5b0492506002810190505b600a831061171d576001810190505b80915050919050565b600073ffffffffffffffffffffffffffffffffffffffff168273ffffffffffffffffffffffffffffffffffffffff16036117985760006040517f64a0ae9200000000000000000000000000000000000000000000000000000000815260040161178f9190611a44565b60405180910390fd5b60006117a683836000610abe565b9050600073ffffffffffffffffffffffffffffffffffffffff168173ffffffffffffffffffffffffffffffffffffffff161461181a5760006040517f73c6ac6e0000000000000000000000000000000000000000000000000000000081526004016118119190611a44565b60405180910390fd5b505050565b6000604051905090565b600080fd5b600080fd5b60007fffffffff0000000000000000000000000000000000000000000000000000000082169050919050565b61186881611833565b811461187357600080fd5b50565b6000813590506118858161185f565b92915050565b6000602082840312156118a1576118a0611829565b5b60006118af84828501611876565b91505092915050565b60008115159050919050565b6118cd816118b8565b82525050565b60006020820190506118e860008301846118c4565b92915050565b600081519050919050565b600082825260208201905092915050565b60005b8381101561192857808201518184015260208101905061190d565b60008484015250505050565b6000601f19601f8301169050919050565b6000611950826118ee565b61195a81856118f9565b935061196a81856020860161190a565b61197381611934565b840191505092915050565b600060208201905081810360008301526119988184611945565b905092915050565b6000819050919050565b6119b3816119a0565b81146119be57600080fd5b50565b6000813590506119d0816119aa565b92915050565b6000602082840312156119ec576119eb611829565b5b60006119fa848285016119c1565b91505092915050565b600073ffffffffffffffffffffffffffffffffffffffff82169050919050565b6000611a2e82611a03565b9050919050565b611a3e81611a23565b82525050565b6000602082019050611a596000830184611a35565b92915050565b611a6881611a23565b8114611a7357600080fd5b50565b600081359050611a8581611a5f565b92915050565b60008060408385031215611aa257611aa1611829565b5b6000611ab085828601611a76565b9250506020611ac1858286016119c1565b9150509250929050565b611ad4816119a0565b82525050565b6000602082019050611aef6000830184611acb565b92915050565b600080600060608486031215611b0e57611b0d611829565b5b6000611b1c86828701611a76565b9350506020611b2d86828701611a76565b9250506040611b3e868287016119c1565b9150509250925092565b600060208284031215611b5e57611b5d611829565b5b6000611b6c84828501611a76565b91505092915050565b611b7e816118b8565b8114611b8957600080fd5b50565b600081359050611b9b81611b75565b92915050565b60008060408385031215611bb857611bb7611829565b5b6000611bc685828601611a76565b9250506020611bd785828601611b8c565b9150509250929050565b600080fd5b600080fd5b7f4e487b7100000000000000000000000000000000000000000000000000000000600052604160045260246000fd5b611c2382611934565b810181811067ffffffffffffffff82111715611c4257611c41611beb565b5b80604052505050565b6000611c5561181f565b9050611c618282611c1a565b919050565b600067ffffffffffffffff821115611c8157611c80611beb565b5b611c8a82611934565b9050602081019050919050565b82818337600083830152505050565b6000611cb9611cb484611c66565b611c4b565b905082815260208101848484011115611cd557611cd4611be6565b5b611ce0848285611c97565b509392505050565b600082601f830112611cfd57611cfc611be1565b5b8135611d0d848260208601611ca6565b91505092915050565b60008060008060808587031215611d3057611d2f611829565b5b6000611d3e87828801611a76565b9450506020611d4f87828801611a76565b9350506040611d60878288016119c1565b925050606085013567ffffffffffffffff811115611d8157611d8061182e565b5b611d8d87828801611ce8565b91505092959194509250565b60008060408385031215611db057611daf611829565b5b6000611dbe85828601611a76565b9250506020611dcf85828601611a76565b9150509250929050565b600067ffffffffffffffff821115611df457611df3611beb565b5b611dfd82611934565b9050602081019050919050565b6000611e1d611e1884611dd9565b611c4b565b905082815260208101848484011115611e3957611e38611be6565b5b611e44848285611c97565b509392505050565b600082601f830112611e6157611e60611be1565b5b8135611e71848260208601611e0a565b91505092915050565b600060208284031215611e9057611e8f611829565b5b600082013567ffffffffffffffff811115611eae57611ead61182e565b5b611eba84828501611e4c565b91505092915050565b7f4e487b7100000000000000000000000000000000000000000000000000000000600052602260045260246000fd5b60006002820490506001821680611f0a57607f821691505b602082108103611f1d57611f1c611ec3565b5b50919050565b6000606082019050611f386000830186611a35565b611f456020830185611acb565b611f526040830184611a35565b949350505050565b600081905092915050565b6000611f70826118ee565b611f7a8185611f5a565b9350611f8a81856020860161190a565b80840191505092915050565b6000611fa28285611f65565b9150611fae8284611f65565b91508190509392505050565b7f4e487b7100000000000000000000000000000000000000000000000000000000600052601160045260246000fd5b6000611ff4826119a0565b91507fffffffffffffffffffffffffffffffffffffffffffffffffffffffffffffffff820361202657612025611fba565b5b600182019050919050565b600081519050919050565b600082825260208201905092915050565b600061205882612031565b612062818561203c565b935061207281856020860161190a565b61207b81611934565b840191505092915050565b600060808201905061209b6000830187611a35565b6120a86020830186611a35565b6120b56040830185611acb565b81810360608301526120c7818461204d565b905095945050505050565b6000815190506120e18161185f565b92915050565b6000602082840312156120fd576120fc611829565b5b600061210b848285016120d2565b91505092915050565b60008190508160005260206000209050919050565b60006020601f8301049050919050565b600082821b905092915050565b6000600883026121767fffffffffffffffffffffffffffffffffffffffffffffffffffffffffffffffff82612139565b6121808683612139565b95508019841693508086168417925050509392505050565b6000819050919050565b60006121bd6121b86121b3846119a0565b612198565b6119a0565b9050919050565b6000819050919050565b6121d7836121a2565b6121eb6121e3826121c4565b848454612146565b825550505050565b600090565b6122006121f3565b61220b8184846121ce565b505050565b5b8181101561222f576122246000826121f8565b600181019050612211565b5050565b601f8211156122745761224581612114565b61224e84612129565b8101602085101561225d578190505b61227161226985612129565b830182612210565b50505b505050565b600082821c905092915050565b600061229760001984600802612279565b1980831691505092915050565b60006122b08383612286565b9150826002028217905092915050565b6122c9826118ee565b67ffffffffffffffff8111156122e2576122e1611beb565b5b6122ec8254611ef2565b6122f7828285612233565b600060209050601f83116001811461232a5760008415612318578287015190505b61232285826122a4565b86555061238a565b601f19841661233886612114565b60005b828110156123605784890151825560018201915060208501945060208101905061233b565b8683101561237d5784890151612379601f891682612286565b8355505b6001600288020188555050505b505050505050565b60006040820190506123a76000830185611a35565b6123b46020830184611acb565b9392505050565b7f4e487b7100000000000000000000000000000000000000000000000000000000600052601260045260246000fdfea2646970667358221220b3f9148b83793dbfb730db3ba2a80b7e436b770a48f975588c86fcb32a346d7d64736f6c63430008180033",
  "linkReferences": {},
  "deployedLinkReferences": {}
}