{
  "_format": "hh-sol-artifact-1",
  "contractName": "OnChainNFT",
  "sourceName": "contracts/OnChainNFT.sol",
  "abi": [
    {
      "inputs": [],
      "stateMutability": "nonpayable",
      "type": "constructor"
    },
    {
      "inputs": [
        {
          "internalType": "address",
          "name": "sender",
          "type": "address"
        },
        {
          "internalType": "uint256",
          "name": "tokenId",
          "type": "uint256"
        },
        {
          "internalType": "address",
          "name": "owner",
          "type": "address"
        }
      ],
      "name": "ERC721IncorrectOwner",
      "type": "error"
    },
    {
      "inputs": [
        {
          "internalType": "address",
          "name": "operator",
          "type": "address"
        },
        {
          "internalType": "uint256",
          "name": "tokenId",
          "type": "uint256"
        }
      ],
      "name": "ERC721InsufficientApproval",
      "type": "error"
    },
    {
      "inputs": [
        {
          "internalType": "address",
          "name": "approver",
          "type": "address"
        }
      ],
      "name": "ERC721InvalidApprover",
      "type": "error"
    },
    {
      "inputs": [
        {
          "internalType": "address",
          "name": "operator",
          "type": "address"
        }
      ],
      "name": "ERC721InvalidOperator",
      "type": "error"
    },
    {
      "inputs": [
        {
          "internalType": "address",
          "name": "owner",
          "type": "address"
        }
      ],
      "name": "ERC721InvalidOwner",
      "type": "error"
    },
    {
      "inputs": [
        {
          "internalType": "address",
          "name": "receiver",
          "type": "address"
        }
      ],
      "name": "ERC721InvalidReceiver",
      "type": "error"
    },
    {
      "inputs": [
        {
          "internalType": "address",
          "name": "sender",
          "type": "address"
        }
      ],
      "name": "ERC721InvalidSender",
      "type": "error"
    },
    {
      "inputs": [
        {
          "internalType": "uint256",
          "name": "tokenId",
          "type": "uint256"
        }
      ],
      "name": "ERC721NonexistentToken",
      "type": "error"
    },
    {
      "inputs": [
        {
          "internalType": "address",
          "name": "owner",
          "type": "address"
        }
      ],
      "name": "OwnableInvalidOwner",
      "type": "error"
    },
    {
      "inputs": [
        {
          "internalType": "address",
          "name": "account",
          "type": "address"
        }
      ],
      "name": "OwnableUnauthorizedAccount",
      "type": "error"
    },
    {
      "anonymous": false,
      "inputs": [
        {
          "indexed": true,
          "internalType": "address",
          "name": "owner",
          "type": "address"
        },
        {
          "indexed": true,
          "internalType": "address",
          "name": "approved",
          "type": "address"
        },
        {
          "indexed": true,
          "internalType": "uint256",
          "name": "tokenId",
          "type": "uint256"
        }
      ],
      "name": "Approval",
      "type": "event"
    },
    {
      "anonymous": false,
      "inputs": [
        {
          "indexed": true,
          "internalType": "address",
          "name": "owner",
          "type": "address"
        },
        {
          "indexed": true,
          "internalType": "address",
          "name": "operator",
          "type": "address"
        },
        {
          "indexed": false,
          "internalType": "bool",
          "name": "approved",
          "type": "bool"
        }
      ],
      "name": "ApprovalForAll",
      "type": "event"
    },
    {
      "anonymous": false,
      "inputs": [
        {
          "indexed": false,
          "internalType": "uint256",
          "name": "_fromTokenId",
          "type": "uint256"
        },
        {
          "indexed": false,
          "internalType": "uint256",
          "name": "_toTokenId",
          "type": "uint256"
        }
      ],
      "name": "BatchMetadataUpdate",
      "type": "event"
    },
    {
      "anonymous": false,
      "inputs": [
        {
          "indexed": false,
          "internalType": "uint256",
          "name": "_tokenId",
          "type": "uint256"
        }
      ],
      "name": "MetadataUpdate",
      "type": "event"
    },
    {
      "anonymous": false,
      "inputs": [
        {
          "indexed": false,
          "internalType": "uint256",
          "name": "tokenId",
          "type": "uint256"
        }
      ],
      "name": "Minted",
      "type": "event"
    },
    {
      "anonymous": false,
      "inputs": [
        {
          "indexed": true,
          "internalType": "address",
          "name": "previousOwner",
          "type": "address"
        },
        {
          "indexed": true,
          "internalType": "address",
          "name": "newOwner",
          "type": "address"
        }
      ],
      "name": "OwnershipTransferred",
      "type": "event"
    },
    {
      "anonymous": false,
      "inputs": [
        {
          "indexed": true,
          "internalType": "address",
          "name": "from",
          "type": "address"
        },
        {
          "indexed": true,
          "internalType": "address",
          "name": "to",
          "type": "address"
        },
        {
          "indexed": true,
          "internalType": "uint256",
          "name": "tokenId",
          "type": "uint256"
        }
      ],
      "name": "Transfer",
      "type": "event"
    },
    {
      "inputs": [
        {
          "internalType": "address",
          "name": "to",
          "type": "address"
        },
        {
          "internalType": "uint256",
          "name": "tokenId",
          "type": "uint256"
        }
      ],
      "name": "approve",
      "outputs": [],
      "stateMutability": "nonpayable",
      "type": "function"
    },
    {
      "inputs": [
        {
          "internalType": "address",
          "name": "owner",
          "type": "address"
        }
      ],
      "name": "balanceOf",
      "outputs": [
        {
          "internalType": "uint256",
          "name": "",
          "type": "uint256"
        }
      ],
      "stateMutability": "view",
      "type": "function"
    },
    {
      "inputs": [
        {
          "internalType": "string",
          "name": "imageURI",
          "type": "string"
        }
      ],
      "name": "formatTokenURI",
      "outputs": [
        {
          "internalType": "string",
          "name": "",
          "type": "string"
        }
      ],
      "stateMutability": "pure",
      "type": "function"
    },
    {
      "inputs": [
        {
          "internalType": "uint256",
          "name": "tokenId",
          "type": "uint256"
        }
      ],
      "name": "getApproved",
      "outputs": [
        {
          "internalType": "address",
          "name": "",
          "type": "address"
        }
      ],
      "stateMutability": "view",
      "type": "function"
    },
    {
      "inputs": [
        {
          "internalType": "address",
          "name": "owner",
          "type": "address"
        },
        {
          "internalType": "address",
          "name": "operator",
          "type": "address"
        }
      ],
      "name": "isApprovedForAll",
      "outputs": [
        {
          "internalType": "bool",
          "name": "",
          "type": "bool"
        }
      ],
      "stateMutability": "view",
      "type": "function"
    },
    {
      "inputs": [
        {
          "internalType": "string",
          "name": "svg",
          "type": "string"
        }
      ],
      "name": "mint",
      "outputs": [],
      "stateMutability": "nonpayable",
      "type": "function"
    },
    {
      "inputs": [],
      "name": "name",
      "outputs": [
        {
          "internalType": "string",
          "name": "",
          "type": "string"
        }
      ],
      "stateMutability": "view",
      "type": "function"
    },
    {
      "inputs": [],
      "name": "owner",
      "outputs": [
        {
          "internalType": "address",
          "name": "",
          "type": "address"
        }
      ],
      "stateMutability": "view",
      "type": "function"
    },
    {
      "inputs": [
        {
          "internalType": "uint256",
          "name": "tokenId",
          "type": "uint256"
        }
      ],
      "name": "ownerOf",
      "outputs": [
        {
          "internalType": "address",
          "name": "",
          "type": "address"
        }
      ],
      "stateMutability": "view",
      "type": "function"
    },
    {
      "inputs": [],
      "name": "renounceOwnership",
      "outputs": [],
      "stateMutability": "nonpayable",
      "type": "function"
    },
    {
      "inputs": [
        {
          "internalType": "address",
          "name": "from",
          "type": "address"
        },
        {
          "internalType": "address",
          "name": "to",
          "type": "address"
        },
        {
          "internalType": "uint256",
          "name": "tokenId",
          "type": "uint256"
        }
      ],
      "name": "safeTransferFrom",
      "outputs": [],
      "stateMutability": "nonpayable",
      "type": "function"
    },
    {
      "inputs": [
        {
          "internalType": "address",
          "name": "from",
          "type": "address"
        },
        {
          "internalType": "address",
          "name": "to",
          "type": "address"
        },
        {
          "internalType": "uint256",
          "name": "tokenId",
          "type": "uint256"
        },
        {
          "internalType": "bytes",
          "name": "data",
          "type": "bytes"
        }
      ],
      "name": "safeTransferFrom",
      "outputs": [],
      "stateMutability": "nonpayable",
      "type": "function"
    },
    {
      "inputs": [
        {
          "internalType": "address",
          "name": "operator",
          "type": "address"
        },
        {
          "internalType": "bool",
          "name": "approved",
          "type": "bool"
        }
      ],
      "name": "setApprovalForAll",
      "outputs": [],
      "stateMutability": "nonpayable",
      "type": "function"
    },
    {
      "inputs": [
        {
          "internalType": "bytes4",
          "name": "interfaceId",
          "type": "bytes4"
        }
      ],
      "name": "supportsInterface",
      "outputs": [
        {
          "internalType": "bool",
          "name": "",
          "type": "bool"
        }
      ],
      "stateMutability": "view",
      "type": "function"
    },
    {
      "inputs": [
        {
          "internalType": "string",
          "name": "svg",
          "type": "string"
        }
      ],
      "name": "svgToImageURI",
      "outputs": [
        {
          "internalType": "string",
          "name": "",
          "type": "string"
        }
      ],
      "stateMutability": "pure",
      "type": "function"
    },
    {
      "inputs": [],
      "name": "symbol",
      "outputs": [
        {
          "internalType": "string",
          "name": "",
          "type": "string"
        }
      ],
      "stateMutability": "view",
      "type": "function"
    },
    {
      "inputs": [
        {
          "internalType": "uint256",
          "name": "tokenId",
          "type": "uint256"
        }
      ],
      "name": "tokenURI",
      "outputs": [
        {
          "internalType": "string",
          "name": "",
          "type": "string"
        }
      ],
      "stateMutability": "view",
      "type": "function"
    },
    {
      "inputs": [
        {
          "internalType": "address",
          "name": "from",
          "type": "address"
        },
        {
          "internalType": "address",
          "name": "to",
          "type": "address"
        },
        {
          "internalType": "uint256",
          "name": "tokenId",
          "type": "uint256"
        }
      ],
      "name": "transferFrom",
      "outputs": [],
      "stateMutability": "nonpayable",
      "type": "function"
    },
    {
      "inputs": [
        {
          "internalType": "address",
          "name": "newOwner",
          "type": "address"
        }
      ],
      "name": "transferOwnership",
      "outputs": [],
      "stateMutability": "nonpayable",
      "type": "function"
    }
  ],
  "bytecode": "0x60806040523480156200001157600080fd5b50336040518060400160405280600a81526020017f4f6e436861696e4e4654000000000000000000000000000000000000000000008152506040518060400160405280600481526020017f584e465400000000000000000000000000000000000000000000000000000000815250816000908162000090919062000472565b508060019081620000a2919062000472565b505050600073ffffffffffffffffffffffffffffffffffffffff168173ffffffffffffffffffffffffffffffffffffffff16036200011a5760006040517f1e4fbdf70000000000000000000000000000000000000000000000000000000081526004016200011191906200059e565b60405180910390fd5b6200012b816200013260201b60201c565b50620005bb565b6000600760009054906101000a900473ffffffffffffffffffffffffffffffffffffffff16905081600760006101000a81548173ffffffffffffffffffffffffffffffffffffffff021916908373ffffffffffffffffffffffffffffffffffffffff1602179055508173ffffffffffffffffffffffffffffffffffffffff168173ffffffffffffffffffffffffffffffffffffffff167f8be0079c531659141344cd1fd0a4f28419497f9722a3daafe3b4186f6b6457e060405160405180910390a35050565b600081519050919050565b7f4e487b7100000000000000000000000000000000000000000000000000000000600052604160045260246000fd5b7f4e487b7100000000000000000000000000000000000000000000000000000000600052602260045260246000fd5b600060028204905060018216806200027a57607f821691505b60208210810362000290576200028f62000232565b5b50919050565b60008190508160005260206000209050919050565b60006020601f8301049050919050565b600082821b905092915050565b600060088302620002fa7fffffffffffffffffffffffffffffffffffffffffffffffffffffffffffffffff82620002bb565b620003068683620002bb565b95508019841693508086168417925050509392505050565b6000819050919050565b6000819050919050565b6000620003536200034d62000347846200031e565b62000328565b6200031e565b9050919050565b6000819050919050565b6200036f8362000332565b620003876200037e826200035a565b848454620002c8565b825550505050565b600090565b6200039e6200038f565b620003ab81848462000364565b505050565b5b81811015620003d357620003c760008262000394565b600181019050620003b1565b5050565b601f8211156200042257620003ec8162000296565b620003f784620002ab565b8101602085101562000407578190505b6200041f6200041685620002ab565b830182620003b0565b50505b505050565b600082821c905092915050565b6000620004476000198460080262000427565b1980831691505092915050565b600062000462838362000434565b9150826002028217905092915050565b6200047d82620001f8565b67ffffffffffffffff81111562000499576200049862000203565b5b620004a5825462000261565b620004b2828285620003d7565b600060209050601f831160018114620004ea5760008415620004d5578287015190505b620004e1858262000454565b86555062000551565b601f198416620004fa8662000296565b60005b828110156200052457848901518255600182019150602085019450602081019050620004fd565b8683101562000544578489015162000540601f89168262000434565b8355505b6001600288020188555050505b505050505050565b600073ffffffffffffffffffffffffffffffffffffffff82169050919050565b6000620005868262000559565b9050919050565b620005988162000579565b82525050565b6000602082019050620005b560008301846200058d565b92915050565b612baf80620005cb6000396000f3fe608060405234801561001057600080fd5b50600436106101215760003560e01c8063715018a6116100ad578063b88d4fde11610071578063b88d4fde1461031a578063c87b56dd14610336578063d85d3d2714610366578063e985e9c514610382578063f2fde38b146103b257610121565b8063715018a61461028857806371aee193146102925780638da5cb5b146102c257806395d89b41146102e0578063a22cb465146102fe57610121565b806323b872dd116100f457806323b872dd146101c057806330d871c6146101dc57806342842e0e1461020c5780636352211e1461022857806370a082311461025857610121565b806301ffc9a71461012657806306fdde0314610156578063081812fc14610174578063095ea7b3146101a4575b600080fd5b610140600480360381019061013b9190611db4565b6103ce565b60405161014d9190611dfc565b60405180910390f35b61015e61042f565b60405161016b9190611ea7565b60405180910390f35b61018e60048036038101906101899190611eff565b6104c1565b60405161019b9190611f6d565b60405180910390f35b6101be60048036038101906101b99190611fb4565b6104dd565b005b6101da60048036038101906101d59190611ff4565b6104f3565b005b6101f660048036038101906101f1919061217c565b6105f5565b6040516102039190611ea7565b60405180910390f35b61022660048036038101906102219190611ff4565b610669565b005b610242600480360381019061023d9190611eff565b610689565b60405161024f9190611f6d565b60405180910390f35b610272600480360381019061026d91906121c5565b61069b565b60405161027f9190612201565b60405180910390f35b610290610755565b005b6102ac60048036038101906102a7919061217c565b610769565b6040516102b99190611ea7565b60405180910390f35b6102ca6107b9565b6040516102d79190611f6d565b60405180910390f35b6102e86107e3565b6040516102f59190611ea7565b60405180910390f35b61031860048036038101906103139190612248565b610875565b005b610334600480360381019061032f9190612329565b61088b565b005b610350600480360381019061034b9190611eff565b6108a8565b60405161035d9190611ea7565b60405180910390f35b610380600480360381019061037b919061217c565b6109bb565b005b61039c600480360381019061039791906123ac565b610a4d565b6040516103a99190611dfc565b60405180910390f35b6103cc60048036038101906103c791906121c5565b610ae1565b005b6000634906490660e01b7bffffffffffffffffffffffffffffffffffffffffffffffffffffffff1916827bffffffffffffffffffffffffffffffffffffffffffffffffffffffff19161480610428575061042782610b67565b5b9050919050565b60606000805461043e9061241b565b80601f016020809104026020016040519081016040528092919081815260200182805461046a9061241b565b80156104b75780601f1061048c576101008083540402835291602001916104b7565b820191906000526020600020905b81548152906001019060200180831161049a57829003601f168201915b5050505050905090565b60006104cc82610c49565b506104d682610cd1565b9050919050565b6104ef82826104ea610d0e565b610d16565b5050565b600073ffffffffffffffffffffffffffffffffffffffff168273ffffffffffffffffffffffffffffffffffffffff16036105655760006040517f64a0ae9200000000000000000000000000000000000000000000000000000000815260040161055c9190611f6d565b60405180910390fd5b60006105798383610574610d0e565b610d28565b90508373ffffffffffffffffffffffffffffffffffffffff168173ffffffffffffffffffffffffffffffffffffffff16146105ef578382826040517f64283d7b0000000000000000000000000000000000000000000000000000000081526004016105e69392919061244c565b60405180910390fd5b50505050565b606060006040518060400160405280601a81526020017f646174613a696d6167652f7376672b786d6c3b6261736536342c0000000000008152509050600061063c84610f42565b905081816040516020016106519291906124bf565b60405160208183030381529060405292505050919050565b6106848383836040518060200160405280600081525061088b565b505050565b600061069482610c49565b9050919050565b60008073ffffffffffffffffffffffffffffffffffffffff168273ffffffffffffffffffffffffffffffffffffffff160361070e5760006040517f89c62b640000000000000000000000000000000000000000000000000000000081526004016107059190611f6d565b60405180910390fd5b600360008373ffffffffffffffffffffffffffffffffffffffff1673ffffffffffffffffffffffffffffffffffffffff168152602001908152602001600020549050919050565b61075d6110b4565b610767600061113b565b565b60606107938260405160200161077f91906125c7565b604051602081830303815290604052610f42565b6040516020016107a39190612640565b6040516020818303038152906040529050919050565b6000600760009054906101000a900473ffffffffffffffffffffffffffffffffffffffff16905090565b6060600180546107f29061241b565b80601f016020809104026020016040519081016040528092919081815260200182805461081e9061241b565b801561086b5780601f106108405761010080835404028352916020019161086b565b820191906000526020600020905b81548152906001019060200180831161084e57829003601f168201915b5050505050905090565b610887610880610d0e565b8383611201565b5050565b6108968484846104f3565b6108a284848484611370565b50505050565b60606108b382610c49565b5060006006600084815260200190815260200160002080546108d49061241b565b80601f01602080910402602001604051908101604052809291908181526020018280546109009061241b565b801561094d5780601f106109225761010080835404028352916020019161094d565b820191906000526020600020905b81548152906001019060200180831161093057829003601f168201915b50505050509050600061095e611527565b905060008151036109735781925050506109b6565b6000825111156109a85780826040516020016109909291906124bf565b604051602081830303815290604052925050506109b6565b6109b18461153e565b925050505b919050565b6109c36110b4565b60006109ce826105f5565b905060006109db82610769565b9050600860008154809291906109f090612691565b919050555060006008549050610a0633826115a7565b610a1081836115c5565b7f176b02bb2d12439ff7a20b59f402cca16c76f50508b13ef3166a600eb719354a81604051610a3f9190612201565b60405180910390a150505050565b6000600560008473ffffffffffffffffffffffffffffffffffffffff1673ffffffffffffffffffffffffffffffffffffffff16815260200190815260200160002060008373ffffffffffffffffffffffffffffffffffffffff1673ffffffffffffffffffffffffffffffffffffffff16815260200190815260200160002060009054906101000a900460ff16905092915050565b610ae96110b4565b600073ffffffffffffffffffffffffffffffffffffffff168173ffffffffffffffffffffffffffffffffffffffff1603610b5b5760006040517f1e4fbdf7000000000000000000000000000000000000000000000000000000008152600401610b529190611f6d565b60405180910390fd5b610b648161113b565b50565b60007f80ac58cd000000000000000000000000000000000000000000000000000000007bffffffffffffffffffffffffffffffffffffffffffffffffffffffff1916827bffffffffffffffffffffffffffffffffffffffffffffffffffffffff19161480610c3257507f5b5e139f000000000000000000000000000000000000000000000000000000007bffffffffffffffffffffffffffffffffffffffffffffffffffffffff1916827bffffffffffffffffffffffffffffffffffffffffffffffffffffffff1916145b80610c425750610c4182611621565b5b9050919050565b600080610c558361168b565b9050600073ffffffffffffffffffffffffffffffffffffffff168173ffffffffffffffffffffffffffffffffffffffff1603610cc857826040517f7e273289000000000000000000000000000000000000000000000000000000008152600401610cbf9190612201565b60405180910390fd5b80915050919050565b60006004600083815260200190815260200160002060009054906101000a900473ffffffffffffffffffffffffffffffffffffffff169050919050565b600033905090565b610d2383838360016116c8565b505050565b600080610d348461168b565b9050600073ffffffffffffffffffffffffffffffffffffffff168373ffffffffffffffffffffffffffffffffffffffff1614610d7657610d7581848661188d565b5b600073ffffffffffffffffffffffffffffffffffffffff168173ffffffffffffffffffffffffffffffffffffffff1614610e0757610db86000856000806116c8565b6001600360008373ffffffffffffffffffffffffffffffffffffffff1673ffffffffffffffffffffffffffffffffffffffff168152602001908152602001600020600082825403925050819055505b600073ffffffffffffffffffffffffffffffffffffffff168573ffffffffffffffffffffffffffffffffffffffff1614610e8a576001600360008773ffffffffffffffffffffffffffffffffffffffff1673ffffffffffffffffffffffffffffffffffffffff168152602001908152602001600020600082825401925050819055505b846002600086815260200190815260200160002060006101000a81548173ffffffffffffffffffffffffffffffffffffffff021916908373ffffffffffffffffffffffffffffffffffffffff160217905550838573ffffffffffffffffffffffffffffffffffffffff168273ffffffffffffffffffffffffffffffffffffffff167fddf252ad1be2c89b69c2b068fc378daa952ba7f163c4a11628f55a4df523b3ef60405160405180910390a4809150509392505050565b60606000825103610f64576040518060200160405280600081525090506110af565b6000604051806060016040528060408152602001612b3a6040913990506000600360028551610f9391906126d9565b610f9d919061273c565b6004610fa9919061276d565b67ffffffffffffffff811115610fc257610fc1612051565b5b6040519080825280601f01601f191660200182016040528015610ff45781602001600182028036833780820191505090505b50905060018201602082018586518701602081018051600082525b8284101561106a576003840193508351603f8160121c168701518653600186019550603f81600c1c168701518653600186019550603f8160061c168701518653600186019550603f811687015186536001860195505061100f565b80825260038a510660018114611087576002811461109a576110a2565b603d6001870353603d60028703536110a2565b603d60018703535b5050505050505080925050505b919050565b6110bc610d0e565b73ffffffffffffffffffffffffffffffffffffffff166110da6107b9565b73ffffffffffffffffffffffffffffffffffffffff1614611139576110fd610d0e565b6040517f118cdaa70000000000000000000000000000000000000000000000000000000081526004016111309190611f6d565b60405180910390fd5b565b6000600760009054906101000a900473ffffffffffffffffffffffffffffffffffffffff16905081600760006101000a81548173ffffffffffffffffffffffffffffffffffffffff021916908373ffffffffffffffffffffffffffffffffffffffff1602179055508173ffffffffffffffffffffffffffffffffffffffff168173ffffffffffffffffffffffffffffffffffffffff167f8be0079c531659141344cd1fd0a4f28419497f9722a3daafe3b4186f6b6457e060405160405180910390a35050565b600073ffffffffffffffffffffffffffffffffffffffff168273ffffffffffffffffffffffffffffffffffffffff160361127257816040517f5b08ba180000000000000000000000000000000000000000000000000000000081526004016112699190611f6d565b60405180910390fd5b80600560008573ffffffffffffffffffffffffffffffffffffffff1673ffffffffffffffffffffffffffffffffffffffff16815260200190815260200160002060008473ffffffffffffffffffffffffffffffffffffffff1673ffffffffffffffffffffffffffffffffffffffff16815260200190815260200160002060006101000a81548160ff0219169083151502179055508173ffffffffffffffffffffffffffffffffffffffff168373ffffffffffffffffffffffffffffffffffffffff167f17307eab39ab6107e8899845ad3d59bd9653f200f220920489ca2b5937696c31836040516113639190611dfc565b60405180910390a3505050565b60008373ffffffffffffffffffffffffffffffffffffffff163b1115611521578273ffffffffffffffffffffffffffffffffffffffff1663150b7a026113b4610d0e565b8685856040518563ffffffff1660e01b81526004016113d69493929190612804565b6020604051808303816000875af192505050801561141257506040513d601f19601f8201168201806040525081019061140f9190612865565b60015b611496573d8060008114611442576040519150601f19603f3d011682016040523d82523d6000602084013e611447565b606091505b50600081510361148e57836040517f64a0ae920000000000000000000000000000000000000000000000000000000081526004016114859190611f6d565b60405180910390fd5b805181602001fd5b63150b7a0260e01b7bffffffffffffffffffffffffffffffffffffffffffffffffffffffff1916817bffffffffffffffffffffffffffffffffffffffffffffffffffffffff19161461151f57836040517f64a0ae920000000000000000000000000000000000000000000000000000000081526004016115169190611f6d565b60405180910390fd5b505b50505050565b606060405180602001604052806000815250905090565b606061154982610c49565b506000611554611527565b90506000815111611574576040518060200160405280600081525061159f565b8061157e84611951565b60405160200161158f9291906124bf565b6040516020818303038152906040525b915050919050565b6115c1828260405180602001604052806000815250611a1f565b5050565b806006600084815260200190815260200160002090816115e59190612a3e565b507ff8e1a15aba9398e019f0b49df1a4fde98ee17ae345cb5f6b5e2c27f5033e8ce7826040516116159190612201565b60405180910390a15050565b60007f01ffc9a7000000000000000000000000000000000000000000000000000000007bffffffffffffffffffffffffffffffffffffffffffffffffffffffff1916827bffffffffffffffffffffffffffffffffffffffffffffffffffffffff1916149050919050565b60006002600083815260200190815260200160002060009054906101000a900473ffffffffffffffffffffffffffffffffffffffff169050919050565b80806117015750600073ffffffffffffffffffffffffffffffffffffffff168273ffffffffffffffffffffffffffffffffffffffff1614155b1561183557600061171184610c49565b9050600073ffffffffffffffffffffffffffffffffffffffff168373ffffffffffffffffffffffffffffffffffffffff161415801561177c57508273ffffffffffffffffffffffffffffffffffffffff168173ffffffffffffffffffffffffffffffffffffffff1614155b801561178f575061178d8184610a4d565b155b156117d157826040517fa9fbf51f0000000000000000000000000000000000000000000000000000000081526004016117c89190611f6d565b60405180910390fd5b811561183357838573ffffffffffffffffffffffffffffffffffffffff168273ffffffffffffffffffffffffffffffffffffffff167f8c5be1e5ebec7d5bd14f71427d1e84f3dd0314c0f7b2291e5b200ac8c7c3b92560405160405180910390a45b505b836004600085815260200190815260200160002060006101000a81548173ffffffffffffffffffffffffffffffffffffffff021916908373ffffffffffffffffffffffffffffffffffffffff16021790555050505050565b611898838383611a3b565b61194c57600073ffffffffffffffffffffffffffffffffffffffff168373ffffffffffffffffffffffffffffffffffffffff160361190d57806040517f7e2732890000000000000000000000000000000000000000000000000000000081526004016119049190612201565b60405180910390fd5b81816040517f177e802f000000000000000000000000000000000000000000000000000000008152600401611943929190612b10565b60405180910390fd5b505050565b60606000600161196084611afc565b01905060008167ffffffffffffffff81111561197f5761197e612051565b5b6040519080825280601f01601f1916602001820160405280156119b15781602001600182028036833780820191505090505b509050600082602001820190505b600115611a14578080600190039150507f3031323334353637383961626364656600000000000000000000000000000000600a86061a8153600a8581611a0857611a0761270d565b5b049450600085036119bf575b819350505050919050565b611a298383611c4f565b611a366000848484611370565b505050565b60008073ffffffffffffffffffffffffffffffffffffffff168373ffffffffffffffffffffffffffffffffffffffff1614158015611af357508273ffffffffffffffffffffffffffffffffffffffff168473ffffffffffffffffffffffffffffffffffffffff161480611ab45750611ab38484610a4d565b5b80611af257508273ffffffffffffffffffffffffffffffffffffffff16611ada83610cd1565b73ffffffffffffffffffffffffffffffffffffffff16145b5b90509392505050565b600080600090507a184f03e93ff9f4daa797ed6e38ed64bf6a1f0100000000000000008310611b5a577a184f03e93ff9f4daa797ed6e38ed64bf6a1f0100000000000000008381611b5057611b4f61270d565b5b0492506040810190505b6d04ee2d6d415b85acef81000000008310611b97576d04ee2d6d415b85acef81000000008381611b8d57611b8c61270d565b5b0492506020810190505b662386f26fc100008310611bc657662386f26fc100008381611bbc57611bbb61270d565b5b0492506010810190505b6305f5e1008310611bef576305f5e1008381611be557611be461270d565b5b0492506008810190505b6127108310611c14576127108381611c0a57611c0961270d565b5b0492506004810190505b60648310611c375760648381611c2d57611c2c61270d565b5b0492506002810190505b600a8310611c46576001810190505b80915050919050565b600073ffffffffffffffffffffffffffffffffffffffff168273ffffffffffffffffffffffffffffffffffffffff1603611cc15760006040517f64a0ae92000000000000000000000000000000000000000000000000000000008152600401611cb89190611f6d565b60405180910390fd5b6000611ccf83836000610d28565b9050600073ffffffffffffffffffffffffffffffffffffffff168173ffffffffffffffffffffffffffffffffffffffff1614611d435760006040517f73c6ac6e000000000000000000000000000000000000000000000000000000008152600401611d3a9190611f6d565b60405180910390fd5b505050565b6000604051905090565b600080fd5b600080fd5b60007fffffffff0000000000000000000000000000000000000000000000000000000082169050919050565b611d9181611d5c565b8114611d9c57600080fd5b50565b600081359050611dae81611d88565b92915050565b600060208284031215611dca57611dc9611d52565b5b6000611dd884828501611d9f565b91505092915050565b60008115159050919050565b611df681611de1565b82525050565b6000602082019050611e116000830184611ded565b92915050565b600081519050919050565b600082825260208201905092915050565b60005b83811015611e51578082015181840152602081019050611e36565b60008484015250505050565b6000601f19601f8301169050919050565b6000611e7982611e17565b611e838185611e22565b9350611e93818560208601611e33565b611e9c81611e5d565b840191505092915050565b60006020820190508181036000830152611ec18184611e6e565b905092915050565b6000819050919050565b611edc81611ec9565b8114611ee757600080fd5b50565b600081359050611ef981611ed3565b92915050565b600060208284031215611f1557611f14611d52565b5b6000611f2384828501611eea565b91505092915050565b600073ffffffffffffffffffffffffffffffffffffffff82169050919050565b6000611f5782611f2c565b9050919050565b611f6781611f4c565b82525050565b6000602082019050611f826000830184611f5e565b92915050565b611f9181611f4c565b8114611f9c57600080fd5b50565b600081359050611fae81611f88565b92915050565b60008060408385031215611fcb57611fca611d52565b5b6000611fd985828601611f9f565b9250506020611fea85828601611eea565b9150509250929050565b60008060006060848603121561200d5761200c611d52565b5b600061201b86828701611f9f565b935050602061202c86828701611f9f565b925050604061203d86828701611eea565b9150509250925092565b600080fd5b600080fd5b7f4e487b7100000000000000000000000000000000000000000000000000000000600052604160045260246000fd5b61208982611e5d565b810181811067ffffffffffffffff821117156120a8576120a7612051565b5b80604052505050565b60006120bb611d48565b90506120c78282612080565b919050565b600067ffffffffffffffff8211156120e7576120e6612051565b5b6120f082611e5d565b9050602081019050919050565b82818337600083830152505050565b600061211f61211a846120cc565b6120b1565b90508281526020810184848401111561213b5761213a61204c565b5b6121468482856120fd565b509392505050565b600082601f83011261216357612162612047565b5b813561217384826020860161210c565b91505092915050565b60006020828403121561219257612191611d52565b5b600082013567ffffffffffffffff8111156121b0576121af611d57565b5b6121bc8482850161214e565b91505092915050565b6000602082840312156121db576121da611d52565b5b60006121e984828501611f9f565b91505092915050565b6121fb81611ec9565b82525050565b600060208201905061221660008301846121f2565b92915050565b61222581611de1565b811461223057600080fd5b50565b6000813590506122428161221c565b92915050565b6000806040838503121561225f5761225e611d52565b5b600061226d85828601611f9f565b925050602061227e85828601612233565b9150509250929050565b600067ffffffffffffffff8211156122a3576122a2612051565b5b6122ac82611e5d565b9050602081019050919050565b60006122cc6122c784612288565b6120b1565b9050828152602081018484840111156122e8576122e761204c565b5b6122f38482856120fd565b509392505050565b600082601f8301126123105761230f612047565b5b81356123208482602086016122b9565b91505092915050565b6000806000806080858703121561234357612342611d52565b5b600061235187828801611f9f565b945050602061236287828801611f9f565b935050604061237387828801611eea565b925050606085013567ffffffffffffffff81111561239457612393611d57565b5b6123a0878288016122fb565b91505092959194509250565b600080604083850312156123c3576123c2611d52565b5b60006123d185828601611f9f565b92505060206123e285828601611f9f565b9150509250929050565b7f4e487b7100000000000000000000000000000000000000000000000000000000600052602260045260246000fd5b6000600282049050600182168061243357607f821691505b602082108103612446576124456123ec565b5b50919050565b60006060820190506124616000830186611f5e565b61246e60208301856121f2565b61247b6040830184611f5e565b949350505050565b600081905092915050565b600061249982611e17565b6124a38185612483565b93506124b3818560208601611e33565b80840191505092915050565b60006124cb828561248e565b91506124d7828461248e565b91508190509392505050565b7f7b226e616d65223a202247414d4920554e2d434841494e4544222c202264657360008201527f6372697074696f6e223a2022412073696d706c6520535647206261736564206f60208201527f6e2d636861696e204e4654222c2022696d616765223a22000000000000000000604082015250565b6000612565605783612483565b9150612570826124e3565b605782019050919050565b7f227d000000000000000000000000000000000000000000000000000000000000600082015250565b60006125b1600283612483565b91506125bc8261257b565b600282019050919050565b60006125d282612558565b91506125de828461248e565b91506125e9826125a4565b915081905092915050565b7f646174613a6170706c69636174696f6e2f6a736f6e3b6261736536342c000000600082015250565b600061262a601d83612483565b9150612635826125f4565b601d82019050919050565b600061264b8261261d565b9150612657828461248e565b915081905092915050565b7f4e487b7100000000000000000000000000000000000000000000000000000000600052601160045260246000fd5b600061269c82611ec9565b91507fffffffffffffffffffffffffffffffffffffffffffffffffffffffffffffffff82036126ce576126cd612662565b5b600182019050919050565b60006126e482611ec9565b91506126ef83611ec9565b925082820190508082111561270757612706612662565b5b92915050565b7f4e487b7100000000000000000000000000000000000000000000000000000000600052601260045260246000fd5b600061274782611ec9565b915061275283611ec9565b9250826127625761276161270d565b5b828204905092915050565b600061277882611ec9565b915061278383611ec9565b925082820261279181611ec9565b915082820484148315176127a8576127a7612662565b5b5092915050565b600081519050919050565b600082825260208201905092915050565b60006127d6826127af565b6127e081856127ba565b93506127f0818560208601611e33565b6127f981611e5d565b840191505092915050565b60006080820190506128196000830187611f5e565b6128266020830186611f5e565b61283360408301856121f2565b818103606083015261284581846127cb565b905095945050505050565b60008151905061285f81611d88565b92915050565b60006020828403121561287b5761287a611d52565b5b600061288984828501612850565b91505092915050565b60008190508160005260206000209050919050565b60006020601f8301049050919050565b600082821b905092915050565b6000600883026128f47fffffffffffffffffffffffffffffffffffffffffffffffffffffffffffffffff826128b7565b6128fe86836128b7565b95508019841693508086168417925050509392505050565b6000819050919050565b600061293b61293661293184611ec9565b612916565b611ec9565b9050919050565b6000819050919050565b61295583612920565b61296961296182612942565b8484546128c4565b825550505050565b600090565b61297e612971565b61298981848461294c565b505050565b5b818110156129ad576129a2600082612976565b60018101905061298f565b5050565b601f8211156129f2576129c381612892565b6129cc846128a7565b810160208510156129db578190505b6129ef6129e7856128a7565b83018261298e565b50505b505050565b600082821c905092915050565b6000612a15600019846008026129f7565b1980831691505092915050565b6000612a2e8383612a04565b9150826002028217905092915050565b612a4782611e17565b67ffffffffffffffff811115612a6057612a5f612051565b5b612a6a825461241b565b612a758282856129b1565b600060209050601f831160018114612aa85760008415612a96578287015190505b612aa08582612a22565b865550612b08565b601f198416612ab686612892565b60005b82811015612ade57848901518255600182019150602085019450602081019050612ab9565b86831015612afb5784890151612af7601f891682612a04565b8355505b6001600288020188555050505b505050505050565b6000604082019050612b256000830185611f5e565b612b3260208301846121f2565b939250505056fe4142434445464748494a4b4c4d4e4f505152535455565758595a6162636465666768696a6b6c6d6e6f707172737475767778797a303132333435363738392b2fa264697066735822122059d6129fbd1bad408ab196dd73c9beaae96ca07bf309199393f58597c864c94f64736f6c63430008180033",
  "linkReferences": {},
  "deployedLinkReferences": {}
}